:100000001BC033C032C031C030C02FC02EC02DC085
:100010002CC02BC02AC029C028C027C026C072C14E
:1000200077C123C022C038C065C078C063C04AC051
:1000300061C048C02FC05EC011241FBECFEDCDBF30
:1000400010E0A0E6B0E0E4E0F5E002C005900D921B
:10005000A236B107D9F710E0A2E6B0E001C01D92C8
:10006000AB36B107E1F7C0D14BC200C01895282FBD
:10007000959800000000959A82E088BF12BE80919A
:10008000620090E0FC013197E930F10518F4ED5E73
:10009000FF4F099420E053C088B3822388BB8DE0D2
:1000A0008A95F1F788B3886188BB20E001C0239569
:1000B000849B07C09EE19A95F1F7000000002F3F56
:1000C000B0F33DC088B3822388BB8DE08A95F1F7F9
:1000D00088B3886188BB20E001C02395869B07C058
:1000E0009EE19A95F1F7000000002F3FB0F3869B48
:1000F000FECF25C088B3822388BB8DE08A95F1F7B7
:1001000088B3886188BB80E197E20197F1F708B670
:1001100001FE02C02FEF13C022B711C088B38223A3
:1001200088BB20E001C02395459B06C09AE29A95C2
:10013000F1F700002F3FB8F388B3886188BB822FA6
:10014000089518B883E081B910BE87E083BF82E0CC
:1001500088BF12BE939888E098E000009598000050
:10016000220F86992160959A9A95B9F78150A1F747
:10017000C29AC298C49885E88A95F1F798B188B375
:10018000886188BB95FD07C0109263008FE3809360
:10019000600083E037C082B78823E1F4869913C0FA
:1001A0008EEE92E028EC30E0F9013197F1F70197FB
:1001B000D9F7869B08C08FEF809363008FE380930D
:1001C000600085E01FC0109263008FE380936000A1
:1001D00081E018C08EEE92E028EC30E0F901319712
:1001E000F1F70197D9F7C89B07C0109263008FE31E
:1001F0008093600082E006C0109263008FEF8093CE
:10020000600086E080936200809162000895F89417
:1002100080B390E0837090708130910539F0823026
:10022000910531F0892B31F48CE705C088E703C0D4
:100230008CE401C088E480936400109267001092FF
:10024000680001E087B38F7587BB88EA8DB980EFBE
:100250008EB988B3806A88BBBF9A78940895F89461
:100260001DB880EF8EB987B38F7587BB88B38F7544
:1002700088BB00E0089580E0033008F081E0089535
:1002800080916700803079F4033058F0759BF8CF87
:10029000F894023029F088EA8DB980E78EB901E040
:1002A000789480E008959091690010926700093079
:1002B00029F41FB8BD9A8EE48EB904E0892F089501
:1002C000982F80916800813071F4033058F0759B4D
:1002D000F8CFF894023029F088EA8DB980E78EB91A
:1002E00001E07894089590936A0081E0809368001B
:1002F000053039F49FB9BD9A80E48EB91092680038
:1003000006E0089508EF0DB900EF0EB902E0189568
:1003100024BB2FB723BB0230C1F41FB1212F2C7F88
:1003200000916400021751F400E00FB9BD9A0EE489
:100330000EB9137004E010FD03E052C0BD9808EA46
:100340000DB900EF0EB901E04BC00730D1F40FB189
:10035000017089F400916800003059F000916A0042
:100360000FB9BD9A00E40EB900E00093680006E002
:1003700037C005E035C008EA0DB900EF0EB901E05D
:100380002FC0083099F400916700013069F00FB177
:100390000093690000E00FB9BD9A0EE40EB901E0C8
:1003A0000093670004E01CC009E01AC0033059F450
:1003B0000091650011FD009166000FB9BD9A00E43F
:1003C0000EB906E00DC0063029F4BD980EE40EB952
:1003D00007E006C0043021F4BD9800E40EB908E03F
:1003E00023B32FBF24B31895DF92EF92FF9283E7D8
:1003F00082BB8CE281BB88E588BB8CE187BB83E054
:100400008BBB1ABA9EDE8FEF809365001092660058
:10041000FEDEFF24DD240330F0F3113039F011301B
:1004200088F01230D1F01330B1F709C0929A959844
:1004300000000000959A9298033068F336C00330AC
:1004400050F342C0EE241CDF282F033008F03FC0D9
:10045000EE2009F3C29AC298DECFEE2411DF0330FA
:1004600020F0D82EEE24E394F9CFEE20A1F280E81C
:10047000D81661F08FEFD81621F080E4D81689F4F1
:1004800008C0F0906200F0926600C5CFE8DE8FEE03
:1004900002C0E5DE87EFEBDDF82E80936600B7DE65
:1004A000BACF10926600FF24B6CF98E0000095986E
:1004B0000000220F86992160959A9A95B9F780914C
:1004C00063008227FDDEB8CF8F2DFADEB8CF809192
:1004D000600094E0203C08F0282327FD939A95982B
:1004E00027FF9398959A221F27FD939A959827FFA7
:1004F0009398959A221F9A9569F7EE24E394A3CFD7
:04050000F894FFCF9D
:020504003F00B6
:02000004008278
:03000000E4DBFE40
:02000004008377
:01000000FF00
:00000001FF
